:100000000C9406100C942E100C942E100C942E10A0
:100010000C942E100C942E100C942E100C942E1068
:100020000C942E100C942E100C942E100C942E1058
:100030000C942E100C942E100C942E100C942E1048
:100040000C94671F0C942E100C94351F0C940F1FEA
:100050000C942E100C942E100C942E100C942E1028
:100060000C942E100C942E10000000002400270089
:100070002A006D6F645F696E69742829203A2045F3
:100080007272200074756E650000000000000000B0
:1000900000000000000000002B736D616C6C207488
:1000A000756E6520636F6D706F7365642B00001053
:1000B0000040000000102B202062792073746172D0
:1000C00067617A6572206F6620202B000010004067
:1000D000000000102B202020652071207520692051
:1000E0006E206F20782020202B00001000400000A0
:1000F00000102B2D2D2D2D2D2D2D2D2D2D2D2D2D7C
:100100002D2D2D2D2D2D2B000000000000000001B5
:1001100067726565747320746F3A207061612D7425
:100120006F6D792C20000040004000000040657891
:10013000656D612C7068617A65722C636F6D6D6995
:10014000652C2000001000400000001061727474E3
:10015000752C656C74726F6E69632C6F72696F6E4B
:100160002C0000CA00400000000170726F63796FBC
:100170006E2C6D61632B7468652072657374210049
:1001800001A30040000000012D2D2D2D2D2D2D2D22
:100190002D2D2D2D2D2D2D2D2D2D2D2D2D00008C8A
:1001A000004000000001000000000000000000000E
:1001B00000000000000000000000000000090040F6
:1001C0000001000800000000000000000000000026
:1001D000000000000000000000000000000000001F
:1001E000000100000000000000000000000000000E
:1001F00000000000000000000000000000000001FE
:1002000000000000000000000000000000000000EE
:1002100000000000000000000000000000010000DD
:1002200000000000000000000000000000000000CE
:1002300000000000000000000000000100000000BD
:1002400000000000000000000000000000000000AE
:10025000000000000000000000010000000000009D
:10026000000000000000000000000000000000008E
:10027000000000000000000100000000000000007D
:10028000000000000000000000000000000000006E
:10029000000000000001000000000000000000005D
:1002A000000000000000000000000000000000004E
:1002B000000000010000000000000000000000003D
:1002C000000000000000000000000000000000002E
:1002D000000100000000000000000000000000001D
:1002E000000000000000000000000000000000010D
:1002F00000000000000000000000000000000000FE
:1003000000000000000000000000000000010000EC
:1003100000000000000000000000000000000000DD
:1003200000000000000000000000000100000000CC
:1003300000000000000000000000000000000000BD
:1003400000000000000000000001000000000000AC
:10035000000000000000000000000000000000009D
:10036000000000000000000100000000000000008C
:10037000000000000000000000000000000000007D
:10038000000000000001000000000000000000006C
:10039000000000000000000000000000000000005D
:1003A000000000010000000000000000000000004C
:1003B000000000000000000000000000000000003D
:1003C000000100000000000000000000000000002C
:1003D000000000000000000000000000000000011C
:1003E000000000000000000000000000000000000D
:1003F00000000000000000000000000000010000FC
:1004000000000000000000000000000000000000EC
:1004100000000000000000000000000100000000DB
:1004200000000000000000000000000000000000CC
:1004300000000000000000000001087F030102022C
:1004400000000404000000000000000000000000A4
:10045000000000000000000000000000000000009C
:10046000000000000000000000000000000000008C
:10047000000000000000000000000000000000007C
:10048000000000000000000000000000000000006C
:10049000000000000000000000000000000000005C
:1004A000000000000000000000000000000000004C
:1004B0000000000000000000000000004D2E4B2E48
:1004C0000153700000FEA000028050000140104760
:1004D00000FE9000011DA000028050000000204797
:1004E0000153800000D6A0000140500000002047CA
:1004F00000FE900000000A0A014050000000304752
:100500000153700000E2A00002805000000030475C
:100510000153700000D6A000028050000000204768
:100520000153800000000A0A0140500000002047EB
:1005300000FE900000E2A0000140500000001049C1
:100540000153700000BEA0000280500000000A0F9E
:1005500000FE9000000004A202805000000020492C
:1005600001538000000004A30140500000000A0F66
:1005700001537000000004A2014050000000304907
:1005800000FE9000000004A10280500000002047FF
:1005900001537000000004A20280500000000A0F06
:1005A00001538E93000004A1014050000000304729
:1005B00001538000000004A20140500000000A0F17
:1005C0000153700000AAA32C023A5000011D1047ED
:1005D00000FE900000000300023A50000000204797
:1005E0000153800000000300011D5000000030474F
:1005F00000FE9000000004A3011D500000000A0F3F
:1006000001537000000004A4023A5000000030477B
:1006100001537000000004A3023A5000000020477C
:1006200001538000000004A2011D5000000010478B
:1006300000FE9000000004A1011D500000001047C2
:100640000153700000BEA350023A500000000A0F90
:1006500000FE900000000483023A50000000204990
:100660000153800000000482011D500000000A0FA9
:10067000015370000000020F011D500000003049BE
:1006800000FE900000D6A000023A50000000204971
:100690000153700000BEA30C023A500000000A0F84
:1006A00001538E9300D6A30C011D5000000030476B
:1006B0000153800000000000011D500000000000F8
:1006C0000153700000FEA00001FC500000FE103736
:1006D00000FE90000000047101FC50000000203773
:1006E000015380000000047200FE5000000020371B
:1006F00000FE90000000040000FE500000003037B3
:10070000015370000000047101FC500000003037FC
:10071000015370000000060101FC5000000020376A
:10072000015380000000060100FE50000000203749
:1007300000FE90000000060100FE5000000010576F
:10074000015370000000060101FC500000000A0F78
:1007500000FE90000000060101FC50000000205740
:10076000015380000000060100FE500000000A0F47
:10077000015370000000060100FE500000003057D9
:1007800000FE90000000060102A650000000203785
:1007900001537000000006010153500000000A0FD1
:1007A00001538E9300000601023A500000003037DA
:1007B0000153800000000601011D500000000A0FD7
:1007C000015370000000060101FC500000FE1037CC
:1007D00000FE90000000060101FC500000002037E0
:1007E000015380000000060100FE50000000203789
:1007F00000FE90000000000000FE500000003037B6
:10080000015370000000000001FC50000000303770
:10081000015370000000000001FC50000000203770
:10082000015380000000000000FE5000000020374F
:1008300000FE90000000000000FE50000000105874
:10084000015370000000000001FC500000000A0F7E
:1008500000FE90000000000001FC50000000205845
:10086000015380000000000000FE500000000A0F4D
:10087000015370000000000000FE500000003058DE
:1008800000FE900000000000023A500000002037F7
:100890000153700000000000023A500000000A0FEF
:1008A00001538E9300000000011D500000003037FE
:1008B0000153800000000000011D500000000A0FDD
:1008C000015370000000048201FC500000FE10374C
:1008D00000FE9C1000FEAC0000000000000020376D
:1008E00000FE90000000061000000000000020370D
:1008F00001537000000006100000000000003037B7
:100900000153800000000610000000000000303796
:10091000000000000000061000000000000020376A
:1009200000FE9000000006100000000000002037CC
:1009300001537C1000000610000000000000105859
:1009400001537000000006100000000000000A0FB4
:1009500000FE9C100000061000FE5390000020587E
:1009600000FE90000000061001FC500000000A0F7D
:10097000015370000000061001FC500000003058C8
:100980000153800000000000011D500000002058AD
:10099000000000000000000001FC500000000A0FF1
:1009A00000FE90000000000001535000000030588D
:1009B00001538C10000000000000021F00000A0F0D
:1009C0000153700000D6A310028050000140104770
:1009D00000FE9C1000000300000000000000204703
:1009E00000FE9000000003000000000000003047FF
:1009F00001537000000004A30000000000000A0F73
:100A000001538000000004A40000000000003047F3
:100A100000000000000004A30000000000002047C8
:100A200000FE9000000004A200000000000010473B
:100A300001537C10000004A10000000000001047DA
:100A40000153700000BEA3500000000000000A0F18
:100A500000FE9C100000048302805000000020472C
:100A600000FE9000000004820140539000000A0F35
:100A7000015370000000020F028050000000304758
:100A80000153800000D6A0000168500000002047FC
:100A90000000000000BEA30A01AC500000000A0FD5
:100AA00000FE900000D6A30001685000000030470F
:100AB00001538C10000000000000011F0000000026
:100AC0000153700000E2A000023A5000011D1047DF
:100AD00000FE9C1000000471000000000000204790
:100AE00000FE90000000047200000000000020479B
:100AF00001537000000004000000000000003047B7
:100B00000153800000000471000000000000304725
:100B10000000000000000601000000000000204767
:100B200000FE9000000006010000000000002047C9
:100B300001537C1000000601000000000000105965
:100B40000153700000FEA3300000000000000A0FF7
:100B500000FE9C100000030000000000000020596F
:100B600000FE900000000000011D500000000A0F70
:100B70000153700000000201023A50000000305999
:100B800001538000011DA000011D54A50000205943
:100B900000000000000004A2000004A600000A0FEC
:100BA00000FE9000000004A101405000000030470A
:100BB00001538C1000000102011D500000000A0FBB
:100BC000015370000153A34002FA500000FE103799
:100BD00000FE9C1000000000000000000000203714
:100BE00000FE900000000000000000000000203720
:100BF00001537000000000000000000000003037CA
:100C00000153800000000472000000000000303733
:100C1000000000000000060102FA5000000020372A
:100C200000FE900000000601017D53900000203777
:100C300001537C100000060102FA50000000105819
:100C4000015370000000060102A6500000000A0FC8
:100C500000FE9C100000060100000000000020586B
:100C600000FE9000000006010000000000000A0FD6
:100C70000153700000000601000000000000305821
:100C80000153800001538E93023A50000000203738
:100C90000000000001538E930000000000000A0FC6
:100CA00000FE90000153800000000000000030377B
:100CB00001538C10000000000000000000000A0F2B
:100CC0000153700000E2A00001FC500000FE10374C
:100CD00000FE900000FEA00001FC50000000203744
:100CE0000153800000D6A00000FE50000000203715
:100CF00000FE900000000A0F00FE50000000303798
:100D00000153700000E2A00001FC500000003037E9
:100D10000153700000FEA00001FC500000002037CD
:100D20000153800000000A0F00FE50000000203731
:100D300000FE9000011DA00000FE500000001058B1
:100D40000153700000FEAC3001FC500000000A0F9F
:100D500000FE900000000A0F01FC50000000205827
:100D600001538000011DAC2000FE500000000A0F5E
:100D70000153700000FEAC1000FE5000000030581F
:100D800000FE900000000A0F01FC500000002058F7
:100D90000153700000FEA00001FC500000000A0F8B
:100DA00001538E93011DA00000FE5000000030583A
:100DB0000153800000FEA00000FE500000000A0F5A
:100DC00001537000017DA4A2028050000140104731
:100DD00000FE9000000004A30280500000002047A5
:100DE00001538000000004A2014050000000304781
:100DF00000FE9000011DA1020140500000000A0FFA
:100E000001537000000001020280500000003047D2
:100E100001537000000001020280500000002047D2
:100E20000153800000FEA000014050000000104768
:100E300000FE90000000000001405000000010473C
:100E40000153700000D6AE930280500000000A0FDC
:100E500000FE900000E2A000028050000000204749
:100E60000153800000FEA0000140500000000A0F66
:100E70000153700000AAAE930140500000003047BB
:100E800000FE900000BEA00002805000000020473D
:100E90000153700000D6A0000280500000000A0F2D
:100EA00001538E9300E2A000014050000000304743
:100EB0000153800000E2AC1001405000000000002F
:100EC0000153700000E26000023A5000011D10471B
:100ED00000FE900000FE6320023A50000000204710
:100EE0000153800000D66310011D50000000204710
:100EF00000FE900000000300011D5000000030477C
:100F00000153700000000300023A50000000304717
:100F10000153700000000000023A5000000020471A
:100F20000153800000E26000011D500000002047D6
:100F300000FE9000000004A1011D500000001059A7
:100F400001537000000004A1023A500000000A0F93
:100F500000FE9000000004A2023A50000000205958
:100F600001538000000004A2011D500000000A0F80
:100F700001537000000004A3011D5000000030590F
:100F800000FE9000000004A2023A50000000205928
:100F900001537000000004A1023A500000000A0F43
:100FA00001538E9300FE6000011D50000000304789
:100FB00001538000011D6000011D500000000A0F58
:100FC0000153700000FE600002FA500000FE10376E
:100FD00000FE90000000000002FA500000002037E0
:100FE0000153800000000601017D50000000203701
:100FF00000FE900000000601017D50000000303727
:10100000015370000000060102FA50000000303762
:10101000015370000000060102FA50000000203762
:101020000153800000000601017D500000002037C0
:1010300000FE900000000601017D500000001058E5
:10104000015370000000060102A6500000000A0FC4
:1010500000FE90000000060102A65000000020588B
:1010600001538000000006010153500000000A0FE8
:101070000153700000000601015350000000305879
:1010800000FE900000000601023A500000002037E8
:101090000153700000000601023A500000000A0FE0
:1010A00001538E9300000601011D500000003037EF
:1010B0000153800000000601011D500000000A0FCE
:1010C000015370000000000001FC500000FE1037CA
:1010D00000FE9C100000000000000000000020370F
:1010E00000FE90000000000000000000000020371B
:1010F00001537000000000000000000000003037C5
:1011000001538000000000000000000000003037A4
:101110000000000000000000000000000000203778
:1011200000FE9000000000000000000000002037DA
:1011300001537C1000000000000000000000105867
:1011400001537000000000000000000000000A0FC2
:1011500000FE9C100000000000FE5390000020588C
:1011600000FE90000000000001FC500000000A0F8B
:10117000015370000000000001FC500000003058D6
:101180000153800000000000011D500000002058A5
:10119000000000000000000001FC500000000A0FE9
:1011A00000FE900000000000015350000000305885
:1011B00001538C10000000000000021F00000A0F05
:1011C00001537000000000000280500001401047F1
:1011D00000FE9C10000000000000000000002047FE
:1011E00000FE9000000000000000000000003047FA
:1011F00001537000000000000000000000000A0F12
:101200000153800000000000000000000000304793
:101210000000000000000000000000000000204767
:1012200000FE9000000000000000000000001047D9
:1012300001537C1000000000000000000000104777
:1012400001537000000000000000000000000A0FC1
:1012500000FE9C10000000000280500000002047AB
:1012600000FE9000000000000140539000000A0FB3
:101270000153700000000000028050000000304761
:10128000015380000000000001685000000020476A
:10129000000000000000000001AC500000000A0F38
:1012A00000FE900000000000016850000000304780
:1012B00001538C10000000000000011F000000001E
:1012C0000153700000000000023A5000011D104759
:1012D00000FE9C10000000000000000000002047FD
:1012E00000FE900000000000000000000000204709
:1012F00001537000000000000000000000003047B3
:101300000153800000000000000000000000304792
:101310000000000000000000000000000000204766
:1013200000FE9000000000000000000000002047C8
:1013300001537C1000000000000000000000105964
:1013400001537000000000000000000000000A0FC0
:1013500000FE9C100000000000000000000020596A
:1013600000FE900000000000011D500000000A0F68
:101370000153700000000000023A50000000305994
:101380000153800000000000011D54A500002059F9
:101390000000000000000000000004A600000A0F8A
:1013A00000FE9000000000000140500000003047A7
:1013B00001538C1000000000011D500000000A0FB6
:1013C000015370000000000002FA500000FE1037C8
:1013D00000FE9C100000000000000000000020370C
:1013E00000FE900000000000000000000000203718
:1013F00001537000000000000000000000003037C2
:1014000001538000000000000000000000003037A1
:10141000000000000000000002FA50000000203729
:1014200000FE900000000000017D53900000203776
:1014300001537C100000000002FA50000000105818
:10144000015370000000000002A6500000000A0FC7
:1014500000FE9C100000000000000000000020586A
:1014600000FE9000000000000000000000000A0FD5
:101470000153700000000000000000000000305820
:101480000153800000000000023A500000002037A5
:1014900000000000000000000000000000000A0F33
:1014A00000FE900000000000000000000000303747
:1014B00001538C10000000000000000000000A0F23
:1014C00001537000000000000280500001401047EE
:1014D00000FE900000000000028050000000204745
:1014E0000153800000FE1000014050000000204722
:1014F00000FE900000FE1000014050000000304748
:101500000153700000E210000280500000003047DC
:101510000153700000FE10000280500000002047C0
:101520000153800000D61000014050000000204709
:1015300000FE900000FE1000014050000000104925
:101540000153700000000C000280500000000A0FE0
:1015500000FE900000FE10000280500000002049B4
:101560000153800000E210000140500000000A0F0B
:101570000153700000FE100001405000000030498F
:1015800000FE900000D610000280500000002047AE
:101590000153700000FE10000280500000000A0F8E
:1015A00001538E9300E210000140500000003047CC
:1015B0000153800000FE10000140500000000A0F9F
:1015C0000153700000E21000023A5000011D104764
:1015D00000FE900000E21000023A50000000204798
:1015E0000153800000D61000011D5000000030475C
:1015F00000FE900000E21000011D500000000A0FE4
:101600000153700000BE1000023A50000000304745
:101610000153700000E21000023A50000000204721
:101620000153800000D61000011D5000000010473B
:1016300000FE900000E21000011D50000000104765
:1016400001538E9300000C00011D50000000204744
:101650000153700000FE24A200000A0A00000A0FD5
:1016600001537000000004A30000000000000C0003
:1016700001538000000004A2011D5000000020471B
:1016800001537000011D300000000A0A00000A0F1B
:1016900001537000000000000000000000000C007A
:1016A00001538E9301531000011D5000000030477C
:1016B000000000000000000000000A0A0000000016
:1016C00001537000011D100001FC500000FE103796
:1016D00000FE900000FE130301FC500000002037C4
:1016E000015380000000030000FE5000000020377E
:1016F00000FE90000000030000FE500000003037A4
:10170000015370000000030001FC5000000030375E
:10171000015370000000030001FC5000000020375E
:10172000015380000000000000FE50000000203740
:1017300000FE90000000040000FE50000000105762
:10174000015370000000040001FC500000000A0F6B
:1017500000FE90000000040001FC50000000205733
:10176000015380000000040000FE500000000A0F3A
:10177000015370000000040000FE500000003057CC
:1017800000FE90000000040001FC50000000203723
:10179000015370000000040001FC500000000A0F1B
:1017A00001538E930000040000FE5000000030370B
:1017B000015380000000060100FE500000000A0FE7
:1017C000015370000000060101FC500000FE1037BC
:1017D00000FE90000000060101FC500000002037D0
:1017E000015380000000060100FE50000000203779
:1017F00000FE90000000060100FE5000000030379F
:10180000015370000000060101FC50000000303759
:10181000015370000000060101FC50000000203759
:10182000015380000000060100FE50000000203738
:1018300000FE90000000060100FE5000000010585D
:10184000015370000000060101FC500000000A0F67
:1018500000FE90000000000001FC50000000205835
:10186000015380000000000000FE500000000A0F3D
:10187000015370000000000000FE500000003058CE
:1018800000FE90000000000001FC50000000203726
:10189000015370000000000001FC500000000A0F1E
:1018A00001538E930000000000FE5000000030370E
:1018B000015380000000000000FE500000000A0FED
:1018C00000000000DDC2E6330C0C12161B19DBF31E
:1018D000FAFF0200203A25FE0F0F1014DBB2F6DBF0
:1018E00000000000E7B4F3DDC2E6330C0C12161B57
:1018F00019DBF3FAFF0200203A25FE0F0F1014DB6C
:1019000000000000E6330C0C12161B19DBF3FAFF83
:101910000200203A25FE0F0F1014DBB2F6DBC1F9EE
:10192000000000007F7F7F6A49352E2A2A30363A30
:101930003B3B3833302D2A2A2D2D2E3338352E2699
:10194000232A38454A4232211B1D242B312E2824BC
:101950001D0C03050D1A365B71766A523A2E2F3034
:10196000353D413F3C301E100B121C1F1606FAF489
:10197000F5FBF9E6D1C1BDC5D7EBF7FCFAF3E9E019
:10198000DDE1E8EFF3F2EEE9E6E2E0DEDAD7D7DA1E
:10199000DEDFDCD8D1CCCED4D9DAD6D0CAC4C2C42A
:1019A00000000000A5A6A8A9AAAAA9ABACAFC70FC2
:1019B0005E7F7F7F6A49352E2A2A30363A3B3B3894
:1019C00000000000000233446D252BD28D888080FA
:1019D0008080808080808080E4EA3C7A7F7F7F7F87
:1019E0007F7F7F7F7F7F7F7F7F7F7E360CF4A8861F
:1019F00080808080808080808080808080808080E7
:101A000099BBC4FF3356687F7F7F7F7F7F7F7F7F57
:101A10007F7F7F7F7F7F7F7F684A1CFFF0BB9F8037
:101A200086808080808080808080808080808080B0
:101A300080809FC2E704567A7F7F7F7F7F7F7F7F92
:101A40007F7F7F7F7F7F7F7F7F7F7F7F7F744C481B
:101A500012EEDFC2B093938080808080808080808F
:101A6000808080808080808080808080808097934C
:101A7000BBB0C4CDFCF80C241C214A33514C7F7FF1
:101A80007F7F7F7F7F7F7F7F7F7F7F7F7F7F7F7F66
:101A90007F7F7F7B404A2B3612E2FFEAEDEAD5DBFF
:101AA000FCE2D2DFDB01F6EEEEEEDFEEB8CDCC935A
:101AB0009E80808080808080808080808080808008
:101AC0008080808082A9B0CAE7C4D5EEF602161CD9
:101AD00027444A5E484A745B446756677A6F7A7F48
:101AE0007F7F7F7F7F7F7F7F7F7F7F7F7F7F7F7F06
:101AF0007F7F6F684A5B3C4544100813FFF0F4DBBE
:101B0000E2E2E2EED9FCF6F4E2EDD3D9CAE7D5BBC6
:101B1000B0B098808080808080808080808080804D
:101B20008080808080808080808080808085869199
:101B300091A5A5B6B4C2D2CACDDBDFEE0000040881
:101B40000421242E2B34455057576269747A7F7FC5
:101B50007F7F7F7F000000007F7F7F7F7F5E8080B0
:101B6000808080808080802C807FB57F7F897FFA15
:101B70005731174F7F987F687F547FDE4F0F25F6D0
:101B8000B29680808080808080808082878CC0A791
:101B9000BE7F7F7F7F7F7F7F7F577F7F615F5A41DF
:101BA00032F8B78000808080808080A8270980C9B3
:101BB000BB809446F3577F2E7F7F52557F7F7F7F78
:101BC000BC7FAD2F8080CBFBCFA87F23D6808080C9
:101BD000B51A809080C28BB4AC7EDF7F507F7F7F50
:101BE0007F7E7F7F4B7F7F165E80FCF1DF80B4615C
:101BF000801DCD8073807F80CC808080809FC27F5D
:101C0000E10554594E2C7F32F67F807749117FD4FD
:101C1000F67F7F577F1FBC80D3F580808780808CC4
:101C2000BCC21BE594E34AB37F62472D510CF77F9A
:101C3000387FE17FD7F77FF27F6B03FFFDE3F08012
:101C400042EF809372C57F807F11A9807CCBBFC19A
:101C5000A93AC33F105C2B7F4AE6E7684C287FBE59
:101C60007F7F0BD47F80098418A9C0801B80D1FEA0
:101C7000E6A4107F8970F836BFD509C27F466D7221
:101C800036FF5A2FF2FF1F130DFAECF599E70D40BE
:101C900080E37F94AFABC89DDC215E80F1352F19C6
:101CA000A37FD83135284AFB4CC5F9E55B2F0A26BE
:101CB0001C08DF5280EDBD1A1BC7A4210ADA96EB7F
:101CC000ABB2DD09234153077F4F611C3E282BAD8A
:101CD000F543C8F2FFDC2A1E3CB44CF9A81BE41BF8
:101CE00012DD807F9DA04EF6DD9130D1D666DFFEFD
:101CF0003B0F43173919F9DC2CA42AD6E9062AC26E
:101D0000AC103FD026B3CF0FB798DFBD12EB27EA58
:101D100012202635B30A2D095FF0FB0B5BC21AEEC9
:101D2000212FD6F4CFD7CCB03DE137B526F917C770
:101D30007FDD0C1DA951EE3FDFC40FD2FC0724BA92
:101D40002FE4052EC35F3E025BE2510A71D304C645
:101D500001C8D73FD734244C9018B3E1F7A5288A9F
:101D60002CC905393327E04412FEFCE8EBF8252E98
:101D700005DE3A02AFF514D825E90DBF0007CA2DDC
:101D8000ED00F7F80DFE19FDD3E6CFFED6144A0B91
:101D900010E7132205EC4AE103EFC901E902FF2332
:101DA000FDF603F1E5E2DCFCEC11EF26EAEEF7EEDE
:101DB0001DD1FDEC050BF413093333F8034EEE0F80
:101DC000CAE6C9DF040DE5EFE50BFCD3DC1AE30737
:101DD000F1FE1216DD07040B3C09F2FE0415F2EDCC
:101DE000CA0803FB1B06221E25FBFCF501FCCD1FC8
:101DF000FB0AFEEBEC3324E215D2F9B7F1E30AFD5E
:101E00000A1C10FD11FC1FF6F713EBF2F70D14FC82
:101E1000000AFCFCE80AD4F3FFC0EFE8EB11E90983
:101E200018121FF90FFA05E90500032D06FD2B0D09
:101E3000F0F7FEEBEBE8D808DBFD07F0F404010E49
:101E4000F2CFEB08FBF00D31F704F5FFFC0D0902B2
:101E5000E9F3F90DE52A05F41808FF02FD01F4F194
:101E6000E1F104C20A0A0FE604E201F2EDEFFF0C11
:101E70000CF3180DF80C3222FB0918D1F9F6EEF22A
:101E80000718FB00001FE5F5EE03FCDD04B823F1A5
:101E900018FD11F21CFBFF0CF1F7000000001AEF17
:101EA0002105090513D009E1F3F6E8E51AEF320040
:101EB000E5FD5AF3FA1D1D00000502E8FD0000F3E0
:101EC000FD17E824E5EF0C00EC1AE1E505ECFAF665
:101ED000E1001AFA0002F61A0000FDFA0009EFFD0F
:101EE00010F31746940917E82FEC28FD05EC02FDC6
:101EF000E81DFA13FDF6FA000CB62B17EFD409FA19
:101F00000502ECFAFA02020C0CDB05EF13EC0205F9
:101F100000DEF61DF6000CF6170200EF05FA0C05C0
:101F20000CE110F6E5FA0CEC0CD005D40202021715
:101F3000FA13EF32DB0000F609EF3FF313DB17FA79
:101F4000EF101DFA00EF05ECFDF302D005F300F6EB
:101F50000202ECFD0017F30217EF05FD0C0005026D
:101F6000F6F3F624EF13EC1AFA05F613FAF617EC6B
:101F700000F3000209FAF309FA02D42805D4FD138C
:101F800002D7171002E10CEFFA020000090209F66D
:101F900000FD1AEC000000FD13DEFA21FAFD00132B
:101FA000FD0002FAF3EC02F302FA0CFAFA0009FD62
:101FB000000000000000AFC70F5E7F7F7F6A4935D9
:101FC0002E2A2A3000000000250028002B000404DF
:101FD00004040404040402020202020203030303D1
:101FE00003030102040810204080010204081020AD
:101FF0000102040810200000000800020100000394
:1020000004070000000000000000032011241FBE90
:10201000CFEFD8E0DEBFCDBF11E0A0E0B1E0EAE352
:10202000F5E402C005900D92A635B107D9F722E07C
:10203000A6E5B1E001C01D92A43DB207E1F710E1B1
:10204000C6E0D0E104C02197FE010E949522C53070
:10205000D107C9F70E94B11F0C949B220C94000079
:102060002F923F924F925F926F927F928F929F92A8
:10207000AF92BF92CF92DF92EF92FF920F931F9396
:10208000CF93DF93CDB7DEB72A970FB6F894DEBFB4
:102090000FBECDBF90904B02939490924B02B090A4
:1020A0004E022091C702822F90E09A8389839B146D
:1020B00058F080914C02882309F414C28150809317
:1020C0004C0210924B02912C29813A81232B09F466
:1020D00069C06091C8027091C90290E080E00E94DE
:1020E00043212B013C018FE492E09C838B838BEA9C
:1020F000989E812D11248695982F990F890F992DDF
:10210000981B32E0A32EB12CA91AB108AA0CBB1C53
:10211000AA0CBB1CF12CE12C1EE1AB81BC815096BA
:102120000C915097093E09F4D6C008F485C00C3EC6
:1021300009F48FC00D3E09F09CC051968C915197C7
:10214000891509F48CC11E9DF0011F9DF00D11240D
:10215000E559FD4F808180FF14C0EB81FC818181B6
:10216000813408F080E4AB81BC815D968C931E9D28
:10217000F0011F9DF00D1124E559FD4F80818E7FE8
:10218000808381FD28C0FFEFEF1AFF0A2B813C817D
:10219000225E3F4F3C832B8389819A81E816F906A2
:1021A00009F0BBCF2A960FB6F894DEBF0FBECDBFA5
:1021B000DF91CF911F910F91FF90EF90DF90CF9023
:1021C000BF90AF909F908F907F906F905F904F9057
:1021D0003F902F900895EB81FC811486158616861A
:1021E00017866281738161157105D9F090E080E0F6
:1021F0000E944321002309F458C19B01AC01C30193
:10220000B2010E94FA219B01AC016AE37CE788E5F8
:102210009AE40E94A220EB81FC81648775878687FF
:1022200097871E9DF0011F9DF00D1124E559FD4F6C
:1022300080818D7F8083A7CF01111BC01E9DF0017F
:102240001F9DF00D1124E559FD4F80818260808330
:102250007ACFFD018189891176CF11821E9DF0010F
:102260001F9DF00D1124E559FD4F80818160808311
:102270006ACF9920A1F0EFEFE00FEA3008F063CFCA
:10228000F0E0EB5BFE4E0C949522E311C711B41104
:102290001E11931101122E11A310A310EA11023E78
:1022A00009F4CDC008F4D1C00A3E81F10B3E09F01B
:1022B0004ACFAB81BC8159969C9159979F701196DA
:1022C0008C91891B87FD2DC081340CF080E4EB815B
:1022D000FC818183C3CFFD016189611109C0AB819C
:1022E000BC8118961D921D921D921C921B972BCF9C
:1022F000892D0E946722911126CFAB81BC8118964F
:102300001D921D921D921C921B971DCFAB81BC810B
:1023100058968C9158978F7011969C91890F87FFD2
:10232000D3CF80E0D4CFAB81BC8151968C915197B3
:10233000982F907F09F4CEC182958F70FD01918115
:10234000890F87FD86C281340CF080E4AB81BC81AB
:1023500011968C931E9DF0011F9DF00D1124E559DF
:10236000FD4F808181608083EB81FC81828193813C
:102370002481358142898217930708F08DC0840F2C
:10238000911D28173907E0F43383228357CFAB819F
:10239000BC8151962C91519712968D919C91820FF0
:1023A000911D27FD9A958137910510F481E790E002
:1023B0008935B3E09B0710F088E593E0EB81FC8161
:1023C000938382833BCFAB81BC8151962C915197F3
:1023D0002195E2CFAB81BC8151968C915197982F7A
:1023E000907F09F072C18195FD019181890F87FD70
:1023F00032C281340CF080E4AB81BC8111968C93A5
:102400002DCFEB81FC818189982F907F09F460C1E9
:1024100082958F709181890F87FD1FC281340CF0E6
:1024200080E4EB81FC8181831E9DF0011F9DF00DF6
:102430001124E559FD4F808181608083FFCEAB81FF
:10244000BC8157962C915797A7CF013E09F07BCEC0
:10245000AB81BC8156962C91569721959DCF8C913E
:10246000882309F470CE1E9DF0011F9DF00D1124EC
:10247000E559FD4F808182608160808316968D9141
:102480009C91179713969C938E931297FD0110863B
:1024900011861286138657CE841B910982179307E3
:1024A00008F08ECF33832283C9CEAB81BC81519695
:1024B000EC91EE2309F4A1CEF0E00A2C02C0F595D0
:1024C000E7950A94E2F7EF70FF27EE0FFF1FEE0F7C
:1024D000FF1FEE5EFE4F20813181428153810E94B9
:1024E000A2208BCE90904A02939490924A02A090A0
:1024F0004502AFE3A9150CF47CC1292D092C000C71
:10250000330BE0914102F0914202EA0DF11DE4919A
:10251000B0E4EB9FC0011124820F931FE981FA817F
:102520008E9F70018F9FF00C9E9FF00C1124EE0C7B
:10253000FF1CEE0CFF1C8091460290914702E80EB2
:10254000F91EEF2B09F4BDCD20910002309101025C
:102550003C832B836091C8027091C90290E080E0B7
:102560000E9443216F83788789879A874090CA02A7
:102570005090CB026090CC027090CD02309143021B
:102580003E830FE412E01D8222242A94322CD12CA7
:10259000C12CFEE18F2EF7012491C7010296FC01A8
:1025A0004491207F50E05595479555954795559511
:1025B000479555954795422BF70124913196E49123
:1025C00030E0322F222722273F702E2BFC018491EE
:1025D0003196E49190E0982F882788279F708E2B62
:1025E000692F772767FD7A956E30710509F474C0FD
:1025F000F801608B818B4115510551F14031510536
:102600000CF0AAC0D8014C93CA010197889EF00132
:10261000899EF00D1124BD968B819C81E80FF91FD6
:102620008491813408F09BC0E491D8011196EC9319
:10263000119750968C918D3E09F493C08C9CF001BB
:102640008D9CF00D1124E559FD4F808181608083C0
:10265000D80150968C9150972115310509F44DC041
:10266000833009F4E4C0722F632F8D3E09F47CC0DF
:1026700013963C932E931297F801108611861286BA
:1026800013868C9CF0018D9CF00D1124E559FD4FB3
:102690009081926090838D3009F495C108F4BAC09E
:1026A000853E09F485C108F4DAC08A3E09F475C193
:1026B00008F4A3C18B3E09F40DC18E3E09F057C04A
:1026C000D8015196BC91BD8352C082958F708CCE3B
:1026D0008195A0CE819532CEBC0175956795759593
:1026E00067957595679575956795D80150966C9324
:1026F00050978F7051968C937ECF8D3009F463C1C3
:1027000078F6873009F41AC108F4D7C08B3009F481
:102710003BC108F0EAC0893051F5232B11F4452B59
:1027200031F1D80151966C915197611102C05596C3
:102730006C91F801658B70E0762F6627072E000CF0
:10274000880B990B0E944521D80118966D937D93B3
:102750008D939C931B970BC0F801108279CFE0E416
:1027600064CF2115310519F0F80137832683FFEF77
:10277000CF1ADF0A24E0E20EF11C025E1F4F8981AE
:102780009A81C816D90609F006CFA0924502909208
:102790004A029D8190934C02B0924E024092CA022E
:1027A0005092CB026092CC027092CD02B091C702DF
:1027B000FB2FAFEF2A163A06B9F08FEF20E422166E
:1027C00031040CF4820D80934A02A394A092450236
:1027D00080914302A81608F469C080914402809356
:1027E0004502A091C702FA2FEF2FF0E0FA83E983A8
:1027F00068CCA394A092450280914302A81204C021
:10280000A0904402A092450210924A0230E020E0DB
:10281000912C77CE873009F491C008F077CF8430BF
:1028200009F49FC0853089F0833009F0A0CFD8012A
:1028300051968C915197811102C052968C91F8015A
:10284000828B722F632F232BF1F1F8017483658340
:102850008ECF80E07BCD80E0CFCD80E0E2CD813EA9
:1028600009F461C0823E09F453C08F3009F07FCF74
:10287000F8016189662309F47ACF603208F4CEC08A
:1028800070E090E080E00E9443212DEC3CEC4CECA9
:102890005EE30E94FA219B01AC016F8178858985F6
:1028A0009A850E94A2202B013C0161CF3091C70282
:1028B000832F90E09A83898304CC843009F451C03B
:1028C000853009F0B1CFD80114967C9114971596F4
:1028D0006C91BBCFD80151968C915197811102C058
:1028E00059968C91F801818F42CFD80151968C91E5
:1028F000813408F080E4F80181838C9CF0018D9C88
:10290000F00D1124E559FD4F8081816080832FCF28
:10291000D80151968C915197811102C057968C9194
:10292000F801878B24CFD80151968C915197811152
:1029300002C056968C91F801868B19CFD80151961A
:102940008C91982F9F7019F4F80194899F70807F63
:1029500021F4D80154968C91807F892BF801848BC7
:1029600006CFD80151968C91982F9F7019F4F801D9
:1029700093899F70807F21F4D80153968C91807F3A
:10298000892BF801838BF3CEF801A188FE81AF1665
:1029900008F0A12C99249A94EACED80151968C91F2
:1029A0005197811102C058968C91F801808FDFCE2B
:1029B0008C9CF0018D9CF00D1124E559FD4F808118
:1029C00082608083D4CED80151968C91282F30E03C
:1029D00035952795359527953595279535952795DF
:1029E0001901220C331C220C331C220E331E220C24
:1029F000331C8F70280E311CBACE863E09F0B7CE3C
:102A0000F8018189882331F0928D911109C0828F5C
:102A1000938CADCE8FEF890D838FA9CEB62EA7CE26
:102A20009150928F992309F4A2CE938CA0CEE3E02B
:102A3000F0E22491EFEEFFE19491EBEDFFE1E49100
:102A4000EE23C9F0222339F0233001F1A8F421301C
:102A500019F1223029F1F0E0EE0FFF1FEC53F04E98
:102A6000A591B4912FB7F894EC91811126C090955F
:102A70009E239C932FBF08952730A9F02830C9F0DA
:102A8000243049F7209180002F7D03C020918000E1
:102A90002F7720938000DFCF24B52F7724BDDBCFA5
:102AA00024B52F7DFBCF2091B0002F772093B0006D
:102AB000D2CF2091B0002F7DF9CF9E2BDACFAF92ED
:102AC000BF92CF92DF92EF92FF920F931F93CF931B
:102AD000DF936C017B018B01040F151FEB015E017D
:102AE000AE18BF08C017D10759F06991D601ED9112
:102AF000FC910190F081E02DC6010995892B79F7B1
:102B0000C501DF91CF911F910F91FF90EF90DF9062
:102B1000CF90BF90AF900895FC01538D448D252F29
:102B200030E0842F90E0821B930B541710F0CF9667
:102B3000089501970895FC01918D828D981761F099
:102B4000A28DAE0FBF2FB11D5D968C91928D9F5FB0
:102B50009F73928F90E008958FEF9FEF0895FC018F
:102B6000918D828D981731F0828DE80FF11D858D42
:102B700090E008958FEF9FEF0895FC01918D228DD5
:102B8000892F90E0805C9F4F821B91098F7399275A
:102B9000089583E691E00E94BD1521E0892B09F498
:102BA00020E0822F089580E090E0892B29F00E9498
:102BB000C91581110C9400000895FC01A48DA80F83
:102BC000B92FB11DA35ABF4F2C91848D90E001966F
:102BD0008F739927848FA689B7892C93A089B1898F
:102BE0008C91837080648C93938D848D981306C030
:102BF0000288F389E02D80818F7D80830895EF9294
:102C0000FF920F931F93CF93DF93EC0181E0888FA6
:102C10009B8D8C8D98131AC0E889F989808185FF76
:102C200015C09FB7F894EE89FF896083E889F98918
:102C300080818370806480839FBF81E090E0DF911A
:102C4000CF911F910F91FF90EF900895F62E0B8D6D
:102C500010E00F5F1F4F0F731127E02E8C8D8E1128
:102C60000CC00FB607FCFACFE889F989808185FF8F
:102C7000F5CFCE010E94DD15F1CFEB8DEC0FFD2FCE
:102C8000F11DE35AFF4FF0829FB7F8940B8FEA894A
:102C9000FB8980818062CFCFCF93DF93EC01888D59
:102CA0008823B9F0AA89BB89E889F9898C9185FDC7
:102CB00003C0808186FD0DC00FB607FCF7CF8C9155
:102CC00085FFF2CF808185FFEDCFCE010E94DD151B
:102CD000E9CFDF91CF9108953FB7F89480915F01DC
:102CE00090916001A0916101B091620126B5A89B0D
:102CF00005C02F3F19F00196A11DB11D3FBFBA2F8E
:102D0000A92F982F8827BC01CD01620F711D811D4D
:102D1000911D42E0660F771F881F991F4A95D1F7D2
:102D200008952F923F924F925F926F927F928F926F
:102D30009F92AF92BF92CF92DF92EF92FF920F934A
:102D40001F93CF93DF9300D01F92CDB7DEB72091B2
:102D5000D2023091D3023B832A83232B09F058C13E
:102D60000091C70210E00115110509F4A0C1E0901F
:102D70000002F09001028091510290915202892B41
:102D8000A9F04090570250905802609059027090FC
:102D90005A0220E030E0A901C301B2010E94F521EE
:102DA00087FD04C080914F02811184C1013011055B
:102DB00009F457C080916F0290917002892BA9F09D
:102DC0004090750250907602609077027090780281
:102DD00020E030E0A901C301B2010E94F52187FD86
:102DE00004C080916D028111FDC102301105C9F14D
:102DF00080918D0290918E02892BA9F040909302D0
:102E000050909402609095027090960220E030E01D
:102E1000A901C301B2010E94F52187FD04C0809180
:102E20008B0281117FC203301105D9F08091AB0272
:102E30009091AC02892BA9F08090B1029090B202DF
:102E4000A090B302B090B40220E030E0A901C50127
:102E5000B4010E94F52187FD04C08091A90281116F
:102E600001C3EA81FB81CF01FF0FAA0BBB0BB7FFA8
:102E700004C081509F4FAF4FBF4F892F9A2FAB2F68
:102E8000BB27A7FDBA9580589F4FAF4FBF4FB59551
:102E9000A79597958795B595A795979587958983D4
:102EA00020E030E040E85FE36091CE027091CF0215
:102EB0008091D0029091D1020E9431206B017C015F
:102EC000C092CE02D092CF02E092D002F092D10214
:102ED0008090CA029090CB02A090CC02B090CD021C
:102EE000A50194010E94F52187FD10C0A501940160
:102EF000C701B6010E9430206093CE027093CF02CA
:102F00008093D0029093D1020E94301088B1807CCF
:102F10002981822B88B990914A02937081E009F04F
:102F200080E00E9417153FB7F89480915F0190915F
:102F30006001A0916101B091620126B5A89B05C016
:102F40002F3F19F00196A11DB11D3FBFBA2FA92F28
:102F5000982F8827820F911DA11DB11D880F991FE1
:102F6000AA1FBB1F880F991FAA1FBB1F40915601A4
:102F7000509157016091580170915901841B950B34
:102F8000A60BB70B803A9105A105B10560F23FB7DA
:102F9000F89480915F0190916001A0916101B091DE
:102FA000620126B5A89B05C02F3F19F00196A11D0F
:102FB000B11D3FBFBA2FA92F982F8827820F911DCF
:102FC000A11DB11D880F991FAA1FBB1F880F991F34
:102FD000AA1FBB1F8093560190935701A0935801DD
:102FE000B09359010F900F900F90DF91CF911F91E7
:102FF0000F91FF90EF90DF90CF90BF90AF909F9098
:103000008F907F906F905F904F903F902F9008959A
:1030100081E00E9417150E946C166B017C0194E6FA
:10302000892E912CA12CB12C0E946C166C197D0953
:103030008E099F09683E734081059105A8F331E030
:10304000831A9108A108B10848EEC40E43E0D41ECB
:10305000E11CF11C81149104A104B10429F780E062
:103060000E9417150E946C166B017C0184E6882E65
:10307000912CA12CB12C0E946C166C197D098E0923
:103080009F09683E734081059105A8F3F1E08F1A0E
:103090009108A108B10828EEC20E23E0D21EE11C5F
:1030A000F11C81149104A104B10429F79BCFF0E233
:1030B000F983F6CEE82FE150FF0B6F012EE12E9F32
:1030C000C0012F9F900D1124FC01BE96EE0DFF1D37
:1030D0003490FC01BF96EE0DFF1D2490FC01F0968C
:1030E000EE0DFF1D2491C196F701E80FF91F8490A2
:1030F000912C880C991C822F90E0982F8827990F8B
:10310000880E991EC301B2010E9414219B01F60191
:10311000EE0FFF1FEE0FFF1FE050FE4FA680B7809F
:10312000F3E08F16910408F073C26A157B0508F06E
:103130003CC2312C212C40916C024983F601EE0FE8
:10314000FF1FEE0FFF1FEC5FFD4FA5012A153B058A
:1031500008F4AB0120813181240F351FF901F4916E
:10316000FA8320915B0230915C0240915D025091A4
:103170005E02C301B2010E9431202B013C0140924A
:103180005702509258026092590270925A02398145
:103190002A812303900111243B832A8321143104C3
:1031A00009F403C2B10190E080E00E944321A30131
:1031B00092010E949D2018160CF4F7C1B40190E012
:1031C00080E00E9443219B01AC01C301B2010E9437
:1031D0003020609357027093580280935902909365
:1031E0005A02E4CDE82FE150FF0B6F012EE12E9F34
:1031F000C0012F9F900D11244C01FEE28F0E911CF7
:103200008E0C9F1CF40184909C01215D3F4F2E0D7C
:103210003F1DF9019490FC01F096EE0DFF1D2491E5
:10322000C196F701E80FF91FE491822F90E0982FE3
:103230008827990F2E2E312C220C331C280E391E74
:10324000C301B2010E941421F601EE0FFF1FEE0F21
:10325000FF1FE050FE4FA680B780F3E02F16310429
:1032600008F003C26A157B0508F0B8C1912C812CC7
:1032700020918A022983F601EE0FFF1FEE0FFF1F38
:10328000EC5FFD4FA616B70608F4B5018081918169
:10329000860F971FFC01D4902091790230917A0219
:1032A00040917B0250917C02C301B2010E94312007
:1032B0002B013C0140927502509276026092770297
:1032C0007092780229813D2D3203C0011124EA81D8
:1032D000FB81E80FF91FFB83EA838114910409F451
:1032E0007DC1B40190E080E00E9443219B01AC01CC
:1032F000C301B2010E94F52187FD70C1B10190E0C8
:1033000080E00E9443219B01AC01C301B2010E94F5
:1033100030206093750270937602809377029093C9
:10332000780263CD282F2150330B69012EE12C9DAB
:10333000C0012D9D900D11244C013EE2830E911C85
:103340008E0C9F1CF40184909C01215D3F4F2E0D3B
:103350003F1DF9019490FC01F096EE0DFF1D2491A4
:10336000C196F701E80FF91FE491822F90E0982FA2
:103370008827990F2E2E312C220C331C280E391E33
:10338000C301B2010E941421F601EE0FFF1FEE0FE0
:10339000FF1FE050FE4FA680B780F3E02F163104E8
:1033A00008F074C16A157B0508F045C1912C812C89
:1033B0002091A8022983F601EE0FFF1FEE0FFF1FD9
:1033C000EC5FFD4FA616B70608F4B5018081918128
:1033D000860F971FFC01D49020919702309198029C
:1033E0004091990250919A02C301B2010E9431208A
:1033F0002B013C01409293025092940260929502FC
:103400007092960229813D2D3203C0011124EA8178
:10341000FB81E80FF91FFB83EA838114910409F40F
:103420000AC1B40190E080E00E9443219B01AC01FD
:10343000C301B2010E94F52187FDFDC0B10190E0FA
:1034400080E00E9443219B01AC01C301B2010E94B4
:10345000302060939302709394028093950290932E
:103460009602E1CC282F2150330B39012EE1269D05
:10347000C001279D900D11249C01225D3F4F2E0D10
:103480003F1DF9015490FC01BF96EE0DFF1D4490C5
:10349000FC01F096EE0DFF1D0491C1968E0D9F1D4F
:1034A000FC01849110E0102F0027110F90E0880F8D
:1034B000991F080F191FC501B4010E941421AB0107
:1034C000F301EE0FFF1FEE0FFF1FE050FE4FC6800F
:1034D000D7800330110508F403C1252D30E0322FC9
:1034E0002227330FE42CF12CEE0CFF1CE20EF31E0E
:1034F000E00EF11E4C155D05A0F55090C602F301DB
:10350000EE0FFF1FEE0FFF1FEC5FFD4FC616D70635
:1035100008F4B6010190F081E02DE60FF71F7490DA
:103520002091B5023091B6024091B7025091B80295
:10353000C501B4010E9431204B015C018092B102AF
:103540009092B202A092B302B092B402252D372D10
:103550003203F00111248A819B818E0F9F1F9B8370
:103560008A83E114F10409F4A2C0B70190E080E07D
:103570000E944321A50194010E949D2018160CF47D
:1035800096C0B80190E080E00E9443219B01AC010D
:10359000C501B4010E9430206093B1027093B20261
:1035A0008093B3029093B4025CCCB50190E080E0CC
:1035B0000E944321A30192010E949D2018160CF441
:1035C000F5CB80E090E0A0E8BFEB809357029093AA
:1035D0005802A0935902B0935A02E8CBB50190E08B
:1035E00080E00E9443219B01AC01C301B2010E9413
:1035F000F52187FDFACB80E090E0A0E8BFEB809357
:10360000750290937602A0937702B0937802EDCB87
:10361000E32DF0E0FE2FEE27FF0F422D50E0440F88
:10362000551F4E0F5F1F1A01280C391C6A157B05A8
:1036300008F481CDB3CDB50190E080E00E94432134
:103640009B01AC01C301B2010E94F52187FDEBCBC8
:1036500080E090E0A0E8BFEB809393029093940207
:10366000A0939502B0939602DECB292D30E0220F75
:10367000331F912C982C8824990C820E931E820C57
:10368000931C6A157B0508F4F3CD27CE292D30E075
:10369000220F331F912C982C8824990C820E931E94
:1036A000820C931C6A157B0508F482CEB6CEB60157
:1036B00090E080E00E944321A50194010E949D209A
:1036C00018160CF4CECB80E090E0A0E8BFEB80931E
:1036D000B1029093B202A093B302B093B402C1CBF3
:1036E0006C157D0520F7F12CE12C07CF8F929F926E
:1036F000AF92BF920F931F93CF93DF93CDB7DEB7F7
:10370000A1970FB6F894DEBF0FBECDBF19A242300D
:1037100008F44AE08E010F5D1F4F842E912CB12CCE
:10372000A12CA50194010E947322E62FB901CA01C0
:10373000EA3044F5E05DD801EE938D01232B242B74
:10374000252B79F790E080E0109769F0FD0101905A
:103750000020E9F73197AF014A1B5B0BBD0183E6FF
:1037600091E00E945F15A1960FB6F894DEBF0FBEE0
:10377000CDBFDF91CF911F910F91BF90AF909F90E0
:103780008F900895E95CD7CF8F929F92AF92BF92AE
:10379000CF92DF92EF92FF920F931F93CF93DF931D
:1037A00000D000D01F92CDB7DEB7EFEEFFE124913D
:1037B000EBEDFFE1E491EE23A1F08E2F90E0880F76
:1037C000991FFC01E859FF4FA591B491FC01EC53FE
:1037D000F04E859194918FB7F894EC91E22BEC9395
:1037E0008FBF81E00E9417150E946C166B017C014F
:1037F000A8EE8A2EA3E09A2EA12CB12C0E946C1662
:103800006C197D098E099F09683E734081059105F9
:10381000A8F321E0821A9108A108B10888EEC80E29
:1038200083E0D81EE11CF11C81149104A104B104B1
:1038300029F787B1816187B9E0917301F091740133
:1038400082E08083E0916F01F09170011082E0913D
:103850007101F091720180E1808310927B01E0910F
:103860007701F091780186E08083E0917501F09115
:103870007601808180618083E0917501F09176010D
:10388000808188608083E0917501F091760180816C
:1038900080688083E0917501F091760180818F7D51
:1038A0008083E4E0F2E080EDDF011D928A95E9F784
:1038B00084E890E0909301028093000280E49FE10D
:1038C0009093030280930202ECEBF4E084918983ED
:1038D000EDEBF4E094919A83EEEBF4E024912B83EA
:1038E000EFEBF4E0E491EC838D3409F42AC28634E2
:1038F00009F0E1C19C3409F0E4C1243509F0E1C1CB
:10390000E43309F0DEC134E03093C702EAE3F4E0C7
:10391000849180934302EBE3F4E09491981708F0CC
:1039200046C2E491E09344028CE394E09093420217
:103930008093410280EC94E090934702809346028A
:103940008FE080934002ECE3F4E090E009C08491C2
:10395000891708F094913196B4E0EC3BFB0719F01D
:10396000849187FFF4CF90934D0220914D022F5FF9
:1039700020934D0240E0532F249FC001259F900DBE
:10398000112490934902809348029C0120543B4F9C
:10399000EEEAF0E04491EFEAF0E0849190E0880FE5
:1039A000991F942BB9018330910508F4FDC1680F6C
:1039B000791F9093070280930602309305022093AB
:1039C0000402ECECF0E02491EDECF0E0849190E066
:1039D000880F991F922BAB018330910508F4E1C148
:1039E000480F591F90930B0280930A0270930902AB
:1039F00060930802EAEEF0E02491EBEEF0E08491AF
:103A000090E0880F991F922B9A018330910508F45A
:103A1000C5C1280F391F90930F0280930E02509357
:103A20000D0240930C02E8E0F1E04491E9E0F1E09E
:103A3000849190E0880F991F942BA9018330910500
:103A400008F4A9C1480F591F9093130280931202E2
:103A50003093110220931002E6E2F1E02491E7E2B4
:103A6000F1E0849190E0880F991F922B9A018330A6
:103A7000910508F48DC1280F391F90931702809388
:103A800016025093150240931402E4E4F1E04491CD
:103A9000E5E4F1E0849190E0880F991F942BA9014F
:103AA0008330910508F471C1480F591F90931B0290
:103AB00080931A023093190220931802E2E6F1E093
:103AC0002491E3E6F1E0849190E0880F991F922B16
:103AD0009A018330910508F455C1280F391F90933E
:103AE0001F0280931E0250931D0240931C02E0E8C7
:103AF000F1E04491E1E8F1E0849190E0880F991FB2
:103B0000942BA9018330910508F439C1480F591F3E
:103B1000909323028093220230932102209320026B
:103B2000EEE9F1E02491EFE9F1E0849190E0880F73
:103B3000991F922B9A018330910508F41DC1280F1B
:103B4000391F9093270280932602509325024093B9
:103B50002402ECEBF1E04491EDEBF1E0849190E094
:103B6000880F991F942BA9018330910508F401C196
:103B7000480F591F90932B0280932A0230932902F9
:103B800020932802EAEDF1E02491EBEDF1E084913D
:103B900090E0880F991F922B9A018330910508F4C9
:103BA000E5C0280F391F90932F0280932E02509367
:103BB0002D0240932C02E8EFF1E04491E9EFF1E0AF
:103BC000849190E0880F991F942BA901833091056F
:103BD00008F4C9C0480F591F9093330280933202F2
:103BE0003093310220933002E6E1F2E02491E7E1E4
:103BF000F2E0849190E0880F991F922B9A01833014
:103C0000910508F4ADC0280F391F909337028093B7
:103C100036025093350240933402E4E3F2E04491DB
:103C2000E5E3F2E0849190E0880F991F942BA901BD
:103C30008330910508F491C0480F591F90933B02BF
:103C400080933A023093390220933802E2E5F2E0A1
:103C50002491E3E5F2E0849190E0880F991F922B84
:103C60008330910510F490E080E090933F028093C0
:103C70003E0250933D0240933C0286E080934E0208
:103C80008FEF80934A0285E080934B0280E090E0C2
:103C9000AAEFB2E48093CA029093CB02A093CC0225
:103CA000B093CD028AE698E19093C9028093C8024E
:103CB0000E9430102AC0813309F08AC0933409F47D
:103CC0007FC08FED92E09093D3028093D20202E7FF
:103CD00010E008C083E691E00E94FF150F5F1F4FC0
:103CE000892B21F0F80164916111F4CF4AE06FED66
:103CF00072E080E090E00E94761B42E050E062E5D6
:103D000071E083E691E00E945F150E946C1660935B
:103D100056017093570180935801909359010F9069
:103D20000F900F900F900F90DF91CF911F910F91F7
:103D3000FF90EF90DF90CF90BF90AF909F908F90CB
:103D400008959E32B1F1913209F0BBCF2B3409F0C6
:103D5000B8CFE13209F0B5CFD6CD90E080E06ECF9C
:103D600090E080E052CF90E080E036CF90E080E0BD
:103D70001ACF90E080E0FECE90E080E0E2CE90E0CE
:103D800080E0C6CE90E080E0AACE90E080E08ECECB
:103D900090E080E072CE90E080E056CE90E080E04F
:103DA0003ACE90E080E01ECE90E080E002CEE0E0EF
:103DB000B9CD2B3409F085CFEE3209F082CFA3CDF7
:103DC000283409F07ECFEE3409F07BCF31E09CCD72
:103DD000823359F4933409F074CF283409F071CF49
:103DE000EE3409F06ECF32E08FCD833359F4933443
:103DF00009F067CF283409F064CFEE3409F061CFC1
:103E000033E082CD843309F05CCF933409F059CF8D
:103E1000283409F056CFEE3409F053CF74CD1F92F9
:103E20000F920FB60F9211242F933F934F935F93EE
:103E30006F937F938F939F93AF93BF93EF93FF9372
:103E400083E691E00E94DD15FF91EF91BF91AF9164
:103E50009F918F917F916F915F914F913F912F91A2
:103E60000F900FBE0F901F9018951F920F920FB6D4
:103E70000F9211242F938F939F93EF93FF93E091D1
:103E80007301F09174018081E0917901F0917A01E0
:103E900082FD1BC0908180917C018F5F8F73209188
:103EA0007D01821741F0E0917C01F0E0ED59FE4F79
:103EB000958F80937C01FF91EF919F918F912F912E
:103EC0000F900FBE0F901F9018958081F4CF1F9216
:103ED0000F920FB60F9211242F933F938F939F93BE
:103EE000AF93BF9380915B0190915C01A0915D01C4
:103EF000B0915E0130915A0123E0230F2D3758F520
:103F00000196A11DB11D20935A0180935B019093EE
:103F10005C01A0935D01B0935E0180915F0190917F
:103F20006001A0916101B09162010196A11DB11DD6
:103F300080935F0190936001A0936101B09362014F
:103F4000BF91AF919F918F913F912F910F900FBE95
:103F50000F901F90189526E8230F0296A11DB11D02
:103F6000D2CF789484B5826084BD84B5816084BDED
:103F700085B5826085BD85B5816085BD80916E0007
:103F8000816080936E001092810080918100826038
:103F90008093810080918100816080938100809175
:103FA00080008160809380008091B1008460809364
:103FB000B1008091B00081608093B00080917A0060
:103FC000846080937A0080917A00826080937A0086
:103FD00080917A00816080937A0080917A00806875
:103FE00080937A001092C1000E94C41BC0E0D0E010
:103FF0000E9491162097E1F30E94C9158823C1F30E
:104000000E940000F5CFE3E6F1E01382128288EE11
:1040100093E0A0E0B0E084839583A683B78384E037
:1040200091E09183808385EC90E09587848784EC90
:1040300090E09787868780EC90E0918B808B81EC75
:1040400090E0938B828B82EC90E0958B848B86EC56
:1040500090E0978B868B118E128E138E148E08959E
:104060005058BB27AA270E9448200C94BB210E94CD
:10407000AD2138F00E94B42120F039F49F3F19F4AB
:1040800026F40C94AA210EF4E095E7FB0C94A421ED
:10409000E92F0E94CC2158F3BA17620773078407EF
:1040A000950720F079F4A6F50C94EE210EF4E09536
:1040B0000B2EBA2FA02D0B01B90190010C01CA01E2
:1040C000A0011124FF27591B99F0593F50F4503E8D
:1040D00068F11A16F040A22F232F342F4427585F7F
:1040E000F3CF469537952795A795F0405395C9F797
:1040F0007EF41F16BA0B620B730B840BBAF091504F
:10410000A1F0FF0FBB1F661F771F881FC2F70EC0ED
:10411000BA0F621F731F841F48F4879577956795C0
:10412000B795F7959E3F08F0B0CF9395880F08F0AC
:104130009927EE0F9795879508950E94802108F49E
:1041400081E008950E94B6200C94BB210E94B42106
:1041500058F00E94AD2140F029F45F3F29F00C9403
:10416000A42151110C94EF210C94AA210E94CC217E
:1041700068F39923B1F3552391F3951B550BBB2796
:10418000AA2762177307840738F09F5F5F4F220FDB
:10419000331F441FAA1FA9F335D00E2E3AF0E0E8D2
:1041A00032D091505040E695001CCAF72BD0FE2F1C
:1041B00029D0660F771F881FBB1F261737074807B0
:1041C000AB07B0E809F0BB0B802DBF01FF27935868
:1041D0005F4F3AF09E3F510578F00C94A4210C9467
:1041E000EF215F3FE4F3983ED4F38695779567958A
:1041F000B795F7959F5FC9F7880F911D969587959D
:1042000097F90895E1E0660F771F881FBB1F6217BB
:1042100073078407BA0720F0621B730B840BBA0B79
:10422000EE1F88F7E09508950E94D42188F09F57EB
:1042300098F0B92F9927B751B0F0E1F0660F771FCA
:10424000881F991F1AF0BA95C9F714C0B13091F0C0
:104250000E94EE21B1E008950C94EE21672F782F93
:104260008827B85F39F0B93FCCF386957795679585
:10427000B395D9F73EF490958095709561957F4FF1
:104280008F4F9F4F0895E89409C097FB3EF4909597
:104290008095709561957F4F8F4F9F4F9923A9F01F
:1042A000F92F96E9BB279395F695879577956795AE
:1042B000B795F111F8CFFAF4BB0F11F460FF1BC0F2
:1042C0006F5F7F4F8F4F9F4F16C0882311F096E985
:1042D00011C0772321F09EE8872F762F05C0662333
:1042E00071F096E8862F70E060E02AF09A95660FEC
:1042F000771F881FDAF7880F9695879597F90895A5
:10430000990F0008550FAA0BE0E8FEEF16161706E6
:10431000E807F907C0F012161306E407F50798F04E
:10432000621B730B840B950B39F40A2661F0232B67
:10433000242B252B21F408950A2609F4A140A695E3
:104340008FEF811D811D089597F99F6780E870E0C8
:1043500060E008959FEF80EC089500240A941616FB
:10436000170618060906089500240A941216130663
:10437000140605060895092E0394000C11F48823F1
:1043800052F0BB0F40F4BF2B11F460FF04C06F5F0D
:104390007F4F8F4F9F4F089557FD9058440F551FE3
:1043A00059F05F3F71F04795880F97FB991F61F0B7
:1043B0009F3F79F087950895121613061406551F2E
:1043C000F2CF4695F1DF08C0161617061806991F9A
:1043D000F1CF86957105610508940895E894BB278F
:1043E00066277727CB0197F908950E94802108F46A
:1043F0008FEF08950E940D220C94BB210E94AD21E5
:1044000038F00E94B42120F0952311F00C94A421DF
:104410000C94AA2111240C94EF210E94CC2170F35A
:10442000959FC1F3950F50E0551F629FF001729F59
:10443000BB27F00DB11D639FAA27F00DB11DAA1F68
:10444000649F6627B00DA11D661F829F2227B00DB5
:10445000A11D621F739FB00DA11D621F839FA00D40
:10446000611D221F749F3327A00D611D231F849F90
:10447000600D211D822F762F6A2F11249F575040E7
:104480009AF0F1F088234AF0EE0FFF1FBB1F661F62
:10449000771F881F91505040A9F79E3F510580F02B
:1044A0000C94A4210C94EF215F3FE4F3983ED4F3E5
:1044B000869577956795B795F795E7959F5FC1F7CF
:1044C000FE2B880F911D9695879597F90895991B56
:1044D00079E004C0991F961708F0961B881F7A95FB
:1044E000C9F780950895A1E21A2EAA1BBB1BFD01F6
:1044F0000DC0AA1FBB1FEE1FFF1FA217B307E407C3
:10450000F50720F0A21BB30BE40BF50B661F771F1A
:10451000881F991F1A9469F76095709580959095FA
:104520009B01AC01BD01CF010895EE0FFF1F059067
:0A453000F491E02D0994F894FFCFF8
:10453A0000000000FF155F158C154C16BD159B1564
:10454A00AF150000803F7C9C873FD6AC8F3FEF378A
:10455A00983F1745A13F0ADCAA3FF704B53F86C832
:10456A00BF3FF52FCB3FFE44D73FED11E43FC2A139
:10457A00F13F000000407C9C0740D6AC0F40EF376B
:06458A0018400D0A0000BC
:00000001FF
